100                                                       380381411           200201074334402000303              402963501100343344660003014334466000301402963501100343344660003014334466000301                 20020107381411           20020107014506273539     20010903                         EUR00000001600        000        00000000                000                              9                         DE125022125                 150466                                                                                                                                                              

105           0                                  ABO200202075                1                                          20010330                                                                                                                                                                                                                                                                 130                                                                                                                                                                                                                   

20000000100BXEE 4029636249191 021682500336                      38     638 Blazer Lg.75cm                                                                        000000000000000010000000000000PCE00000245000000024500000024500000002450000001PCE                                                                                                                        0000000000   0000000000                                            1600000000000                                                                                                                                                              

20000000200BXEE 4029636249207 021682500336                      40     638 Blazer Lg.75cm                                                                        000000000000000010000000000000PCE00000245000000024500000024500000002450000001PCE                                                                                                                        0000000000   0000000000                                            1600000000000                                                                                                                                                              

20000000300BXEE 4029636249214 021682500336                      42     638 Blazer Lg.75cm                                                                        000000000000000010000000000000PCE00000245000000024500000024500000002450000001PCE                                                                                                                        0000000000   0000000000                                            1600000000000                                                                                                                                                              

20000000400BXEE 4029636249221 021682500336                      44     638 Blazer Lg.75cm                                                                        000000000000000010000000000000PCE00000245000000024500000024500000002450000001PCE                                                                                                                        0000000000   0000000000                                            1600000000000                                                                                                                                                              

20000000500BXEE 4029636249238 021682500336                      46     638 Blazer Lg.75cm                                                                        000000000000000010000000000000PCE00000245000000024500000024500000002450000001PCE                                                                                                                        0000000000   0000000000                                            1600000000000                                                                                                                                                              

20000000600BXEE 4029636249245 021682500336                      48     638 Blazer Lg.75cm                                                                        000000000000000010000000000000PCE00000245000000024500000024500000002450000001PCE                                                                                                                        0000000000   0000000000                                            1600000000000                                                                                                                                                              

20000000700BXEE 4029636249030 021682500336                      38     629 Blazer Lg.75cm                                                                        000000000000000010000000000000PCE00000245000000024500000024500000002450000001PCE                                                                                                                        0000000000   0000000000                                            1600000000000                                                                                                                                                              

20000000800BXEE 4029636249047 021682500336                      40     629 Blazer Lg.75cm                                                                        000000000000000010000000000000PCE00000245000000024500000024500000002450000001PCE                                                                                                                        0000000000   0000000000                                            1600000000000                                                                                                                                                              

20000000900BXEE 4029636249054 021682500336                      42     629 Blazer Lg.75cm                                                                        000000000000000010000000000000PCE00000245000000024500000024500000002450000001PCE                                                                                                                        0000000000   0000000000                                            1600000000000                                                                                                                                                              

20000001000BXEE 4029636249061 021682500336                      44     629 Blazer Lg.75cm                                                                        000000000000000010000000000000PCE00000245000000024500000024500000002450000001PCE                                                                                                                        0000000000   0000000000                                            1600000000000                                                                                                                                                              

20000001100BXEE 4029636249078 021682500336                      46     629 Blazer Lg.75cm                                                                        000000000000000010000000000000PCE00000245000000024500000024500000002450000001PCE                                                                                                                        0000000000   0000000000                                            1600000000000                                                                                                                                                              

20000001200BXEE 4029636249085 021682500336                      48     629 Blazer Lg.75cm                                                                        000000000000000010000000000000PCE00000245000000024500000024500000002450000001PCE                                                                                                                        0000000000   0000000000                                            1600000000000                                                                                                                                                              

20000001300BXEE 4029636249191 021682500336                      38     638 Blazer Lg.75cm                                                                        000000000000000018000000000000PCE00000441000000044100000024500000002450000001PCE                                                                                                                        0000000000   0000000000                                            1600000000000                                                                                                                                                              

20000001400BXEE 4029636249207 021682500336                      40     638 Blazer Lg.75cm                                                                        000000000000000018000000000000PCE00000441000000044100000024500000002450000001PCE                                                                                                                        0000000000   0000000000                                            1600000000000                                                                                                                                                              

20000001500BXEE 4029636249214 021682500336                      42     638 Blazer Lg.75cm                                                                        000000000000000018000000000000PCE00000441000000044100000024500000002450000001PCE                                                                                                                        0000000000   0000000000                                            1600000000000                                                                                                                                                              

20000001600BXEE 4029636249221 021682500336                      44     638 Blazer Lg.75cm                                                                        000000000000000018000000000000PCE00000441000000044100000024500000002450000001PCE                                                                                                                        0000000000   0000000000                                            1600000000000                                                                                                                                                              

20000001700BXEE 4029636249238 021682500336                      46     638 Blazer Lg.75cm                                                                        000000000000000018000000000000PCE00000441000000044100000024500000002450000001PCE                                                                                                                        0000000000   0000000000                                            1600000000000                                                                                                                                                              

20000001800BXEE 4029636249245 021682500336                      48     638 Blazer Lg.75cm                                                                        000000000000000018000000000000PCE00000441000000044100000024500000002450000001PCE                                                                                                                        0000000000   0000000000                                            1600000000000                                                                                                                                                              

30000000160099999999EUR   00005586000000000000000000000000000000000000000000000055860000000893760000647976000000000000000000000000000000000000000000000000000000000000000055860000000000000000000000000000000000000000000000558600000008937600006479760000000000000000000000000000000000000000000000000000000000000000000000000000000000000000000000000000000000000000000000000000000000000000000000000000000000000000                                                                                                                                                                                                 

100                                                       380381756           200201074334402000303              402963501100343344660003014334466000301402963501100343344660003014334466000301                 20020107381756           20020107014506273553     20010903                         EUR00000001600        000        00000000                000                              9                         DE125022125                 150466                                                                                                                                                              

105           0                                  ABO200202075                1                                          20010330                                                                                                                                                                                                                                                                 130                                                                                                                                                                                                                   

20000000100BXEE 4029636248866 021682400335                      38     639 Blazer Lg.75cm                                                                        000000000000000025000000000000PCE00000612500000061250000024500000002450000001PCE                                                                                                                        0000000000   0000000000                                            1600000000000                                                                                                                                                              

20000000200BXEE 4029636248873 021682400335                      40     639 Blazer Lg.75cm                                                                        000000000000000025000000000000PCE00000612500000061250000024500000002450000001PCE                                                                                                                        0000000000   0000000000                                            1600000000000                                                                                                                                                              

20000000300BXEE 4029636248880 021682400335                      42     639 Blazer Lg.75cm                                                                        000000000000000050000000000000PCE00001225000000122500000024500000002450000001PCE                                                                                                                        0000000000   0000000000                                            1600000000000                                                                                                                                                              

20000000400BXEE 4029636248897 021682400335                      44     639 Blazer Lg.75cm                                                                        000000000000000050000000000000PCE00001225000000122500000024500000002450000001PCE                                                                                                                        0000000000   0000000000                                            1600000000000                                                                                                                                                              

20000000500BXEE 4029636248903 021682400335                      46     639 Blazer Lg.75cm                                                                        000000000000000050000000000000PCE00001225000000122500000024500000002450000001PCE                                                                                                                        0000000000   0000000000                                            1600000000000                                                                                                                                                              

20000000600BXEE 4029636248910 021682400335                      48     639 Blazer Lg.75cm                                                                        000000000000000025000000000000PCE00000612500000061250000024500000002450000001PCE                                                                                                                        0000000000   0000000000                                            1600000000000                                                                                                                                                              

20000000700BXEE 4029636248927 021682400335                      50     639 Blazer Lg.75cm                                                                        000000000000000025000000000000PCE00000612500000061250000024500000002450000001PCE                                                                                                                        0000000000   0000000000                                            1600000000000                                                                                                                                                              

20000000800BXEE 4029636248866 021682400335                      38     639 Blazer Lg.75cm                                                                        000000000000000123000000000000PCE00003013500000301350000024500000002450000001PCE                                                                                                                        0000000000   0000000000                                            1600000000000                                                                                                                                                              

20000000900BXEE 4029636248873 021682400335                      40     639 Blazer Lg.75cm                                                                        000000000000000124000000000000PCE00003038000000303800000024500000002450000001PCE                                                                                                                        0000000000   0000000000                                            1600000000000                                                                                                                                                              

20000001000BXEE 4029636248880 021682400335                      42     639 Blazer Lg.75cm                                                                        000000000000000125000000000000PCE00003062500000306250000024500000002450000001PCE                                                                                                                        0000000000   0000000000                                            1600000000000                                                                                                                                                              

20000001100BXEE 4029636248897 021682400335                      44     639 Blazer Lg.75cm                                                                        000000000000000124000000000000PCE00003038000000303800000024500000002450000001PCE                                                                                                                        0000000000   0000000000                                            1600000000000                                                                                                                                                              

20000001200BXEE 4029636248903 021682400335                      46     639 Blazer Lg.75cm                                                                        000000000000000124000000000000PCE00003038000000303800000024500000002450000001PCE                                                                                                                        0000000000   0000000000                                            1600000000000                                                                                                                                                              

20000001300BXEE 4029636248910 021682400335                      48     639 Blazer Lg.75cm                                                                        000000000000000125000000000000PCE00003062500000306250000024500000002450000001PCE                                                                                                                        0000000000   0000000000                                            1600000000000                                                                                                                                                              

20000001400BXEE 4029636248927 021682400335                      50     639 Blazer Lg.75cm                                                                        000000000000000125000000000000PCE00003062500000306250000024500000002450000001PCE                                                                                                                        0000000000   0000000000                                            1600000000000                                                                                                                                                              

30000000160099999999EUR   00027440000000000000000000000000000000000000000000000274400000004390400003183040000000000000000000000000000000000000000000000000000000000000000274400000000000000000000000000000000000000000000002744000000043904000031830400000000000000000000000000000000000000000000000000000000000000000000000000000000000000000000000000000000000000000000000000000000000000000000000000000000000000000                                                                                                                                                                                                 

100                                                       380381786           200201074334402000303              402963501100343344660003014334466000301402963501100343344660003014334466000301                 20020107381786           20020107014506719280     20010605                         EUR00000001600        000        00000000                000                              9                         DE125022125                 150466                                                                                                                                                              

105           0                                  ABO200202075                1                                          20010330                                                                                                                                                                                                                                                                 130                                                                                                                                                                                                                   

20000000100BXEE 4029636259268 011680690242                      38     610 Hosenanzug                                                                            000000000000000033000000000000PCE00001285350000128535000038950000003895000001PCE                                                                                                                        0000000000   0000000000                                            1600000000000                                                                                                                                                              

20000000200BXEE 4029636259275 011680690242                      40     610 Hosenanzug                                                                            000000000000000033000000000000PCE00001285350000128535000038950000003895000001PCE                                                                                                                        0000000000   0000000000                                            1600000000000                                                                                                                                                              

20000000300BXEE 4029636259282 011680690242                      42     610 Hosenanzug                                                                            000000000000000033000000000000PCE00001285350000128535000038950000003895000001PCE                                                                                                                        0000000000   0000000000                                            1600000000000                                                                                                                                                              

20000000400BXEE 4029636259299 011680690242                      44     610 Hosenanzug                                                                            000000000000000033000000000000PCE00001285350000128535000038950000003895000001PCE                                                                                                                        0000000000   0000000000                                            1600000000000                                                                                                                                                              

20000000500BXEE 4029636259305 011680690242                      46     610 Hosenanzug                                                                            000000000000000033000000000000PCE00001285350000128535000038950000003895000001PCE                                                                                                                        0000000000   0000000000                                            1600000000000                                                                                                                                                              

20000000600BXEE 4029636259312 011680690242                      48     610 Hosenanzug                                                                            000000000000000033000000000000PCE00001285350000128535000038950000003895000001PCE                                                                                                                        0000000000   0000000000                                            1600000000000                                                                                                                                                              

20000000700BXEE 4029636259367 011680690242                      21     610 Hosenanzug                                                                            000000000000000001000000000000PCE00000038950000003895000038950000003895000001PCE                                                                                                                        0000000000   0000000000                                            1600000000000                                                                                                                                                              

20000000800BXEE 4029636259268 011680690242                      38     610 Hosenanzug                                                                            000000000000000025000000000000PCE00000973750000097375000038950000003895000001PCE                                                                                                                        0000000000   0000000000                                            1600000000000                                                                                                                                                              

20000000900BXEE 4029636259275 011680690242                      40     610 Hosenanzug                                                                            000000000000000050000000000000PCE00001947500000194750000038950000003895000001PCE                                                                                                                        0000000000   0000000000                                            1600000000000                                                                                                                                                              

20000001000BXEE 4029636259282 011680690242                      42     610 Hosenanzug                                                                            000000000000000050000000000000PCE00001947500000194750000038950000003895000001PCE                                                                                                                        0000000000   0000000000                                            1600000000000                                                                                                                                                              

20000001100BXEE 4029636259299 011680690242                      44     610 Hosenanzug                                                                            000000000000000025000000000000PCE00000973750000097375000038950000003895000001PCE                                                                                                                        0000000000   0000000000                                            1600000000000                                                                                                                                                              

20000001200BXEE 4029636259305 011680690242                      46     610 Hosenanzug                                                                            000000000000000025000000000000PCE00000973750000097375000038950000003895000001PCE                                                                                                                        0000000000   0000000000                                            1600000000000                                                                                                                                                              

20000001300BXEE 4029636259312 011680690242                      48     610 Hosenanzug                                                                            000000000000000025000000000000PCE00000973750000097375000038950000003895000001PCE                                                                                                                        0000000000   0000000000                                            1600000000000                                                                                                                                                              

20000001400BXEE 4029636259268 011680690242                      38     610 Hosenanzug                                                                            000000000000000015000000000000PCE00000584250000058425000038950000003895000001PCE                                                                                                                        0000000000   0000000000                                            1600000000000                                                                                                                                                              

20000001500BXEE 4029636259275 011680690242                      40     610 Hosenanzug                                                                            000000000000000016000000000000PCE00000623200000062320000038950000003895000001PCE                                                                                                                        0000000000   0000000000                                            1600000000000                                                                                                                                                              

20000001600BXEE 4029636259282 011680690242                      42     610 Hosenanzug                                                                            000000000000000017000000000000PCE00000662150000066215000038950000003895000001PCE                                                                                                                        0000000000   0000000000                                            1600000000000                                                                                                                                                              

20000001700BXEE 4029636259299 011680690242                      44     610 Hosenanzug                                                                            000000000000000017000000000000PCE00000662150000066215000038950000003895000001PCE                                                                                                                        0000000000   0000000000                                            1600000000000                                                                                                                                                              

20000001800BXEE 4029636259305 011680690242                      46     610 Hosenanzug                                                                            000000000000000016000000000000PCE00000623200000062320000038950000003895000001PCE                                                                                                                        0000000000   0000000000                                            1600000000000                                                                                                                                                              

20000001900BXEE 4029636259312 011680690242                      48     610 Hosenanzug                                                                            000000000000000017000000000000PCE00000662150000066215000038950000003895000001PCE                                                                                                                        0000000000   0000000000                                            1600000000000                                                                                                                                                              

20000002000BXEE 4029636259343 011680690242                      19     610 Hosenanzug                                                                            000000000000000033000000000000PCE00001285350000128535000038950000003895000001PCE                                                                                                                        0000000000   0000000000                                            1600000000000                                                                                                                                                              

20000002100BXEE 4029636259350 011680690242                      20     610 Hosenanzug                                                                            000000000000000031000000000000PCE00001207450000120745000038950000003895000001PCE                                                                                                                        0000000000   0000000000                                            1600000000000                                                                                                                                                              

20000002200BXEE 4029636259367 011680690242                      21     610 Hosenanzug                                                                            000000000000000033000000000000PCE00001285350000128535000038950000003895000001PCE                                                                                                                        0000000000   0000000000                                            1600000000000                                                                                                                                                              

20000002300BXEE 4029636259374 011680690242                      22     610 Hosenanzug                                                                            000000000000000033000000000000PCE00001285350000128535000038950000003895000001PCE                                                                                                                        0000000000   0000000000                                            1600000000000                                                                                                                                                              

20000002400BXEE 4029636259381 011680690242                      23     610 Hosenanzug                                                                            000000000000000033000000000000PCE00001285350000128535000038950000003895000001PCE                                                                                                                        0000000000   0000000000                                            1600000000000                                                                                                                                                              

20000002500BXEE 4029636259398 011680690242                      24     610 Hosenanzug                                                                            000000000000000033000000000000PCE00001285350000128535000038950000003895000001PCE                                                                                                                        0000000000   0000000000                                            1600000000000                                                                                                                                                              

20000002600BXEE 4029636259343 011680690242                      19     610 Hosenanzug                                                                            000000000000000025000000000000PCE00000973750000097375000038950000003895000001PCE                                                                                                                        0000000000   0000000000                                            1600000000000                                                                                                                                                              

20000002700BXEE 4029636259350 011680690242                      20     610 Hosenanzug                                                                            000000000000000049000000000000PCE00001908550000190855000038950000003895000001PCE                                                                                                                        0000000000   0000000000                                            1600000000000                                                                                                                                                              

20000002800BXEE 4029636259367 011680690242                      21     610 Hosenanzug                                                                            000000000000000049000000000000PCE00001908550000190855000038950000003895000001PCE                                                                                                                        0000000000   0000000000                                            1600000000000                                                                                                                                                              

20000002900BXEE 4029636259374 011680690242                      22     610 Hosenanzug                                                                            000000000000000025000000000000PCE00000973750000097375000038950000003895000001PCE                                                                                                                        0000000000   0000000000                                            1600000000000                                                                                                                                                              

20000003000BXEE 4029636259381 011680690242                      23     610 Hosenanzug                                                                            000000000000000023000000000000PCE00000895850000089585000038950000003895000001PCE                                                                                                                        0000000000   0000000000                                            1600000000000                                                                                                                                                              

20000003100BXEE 4029636259398 011680690242                      24     610 Hosenanzug                                                                            000000000000000025000000000000PCE00000973750000097375000038950000003895000001PCE                                                                                                                        0000000000   0000000000                                            1600000000000                                                                                                                                                              

20000003200BXEE 4029636259343 011680690242                      19     610 Hosenanzug                                                                            000000000000000017000000000000PCE00000662150000066215000038950000003895000001PCE                                                                                                                        0000000000   0000000000                                            1600000000000                                                                                                                                                              

20000003300BXEE 4029636259350 011680690242                      20     610 Hosenanzug                                                                            000000000000000017000000000000PCE00000662150000066215000038950000003895000001PCE                                                                                                                        0000000000   0000000000                                            1600000000000                                                                                                                                                              

20000003400BXEE 4029636259367 011680690242                      21     610 Hosenanzug                                                                            000000000000000016000000000000PCE00000623200000062320000038950000003895000001PCE                                                                                                                        0000000000   0000000000                                            1600000000000                                                                                                                                                              

20000003500BXEE 4029636259374 011680690242                      22     610 Hosenanzug                                                                            000000000000000017000000000000PCE00000662150000066215000038950000003895000001PCE                                                                                                                        0000000000   0000000000                                            1600000000000                                                                                                                                                              

20000003600BXEE 4029636259381 011680690242                      23     610 Hosenanzug                                                                            000000000000000017000000000000PCE00000662150000066215000038950000003895000001PCE                                                                                                                        0000000000   0000000000                                            1600000000000                                                                                                                                                              

20000003700BXEE 4029636259398 011680690242                      24     610 Hosenanzug                                                                            000000000000000017000000000000PCE00000662150000066215000038950000003895000001PCE                                                                                                                        0000000000   0000000000                                            1600000000000                                                                                                                                                              

30000000160099999999EUR   00038560500000000000000000000000000000000000000000000385605000006169680004473018000000000000000000000000000000000000000000000000000000000000000385605000000000000000000000000000000000000000000003856050000061696800044730180000000000000000000000000000000000000000000000000000000000000000000000000000000000000000000000000000000000000000000000000000000000000000000000000000000000000000                                                                                                                                                                                                 

100                                                       380381787           200201074334402000303              402963501100343344660003014334466000301402963501100343344660003014334466000301                 20020107381787           20020107014506723263     20010606                         EUR00000001600        000        00000000                000                              9                         DE125022125                 150466                                                                                                                                                              

105           0                                  ABO200202075                1                                          20010330                                                                                                                                                                                                                                                                 130                                                                                                                                                                                                                   

20000000100BXEE 4029636259527 011681390277                      19     617 Hosenanzug                                                                            000000000000000033000000000000PCE00000988350000098835000029950000002995000001PCE                                                                                                                        0000000000   0000000000                                            1600000000000                                                                                                                                                              

20000000200BXEE 4029636259534 011681390277                      20     617 Hosenanzug                                                                            000000000000000033000000000000PCE00000988350000098835000029950000002995000001PCE                                                                                                                        0000000000   0000000000                                            1600000000000                                                                                                                                                              

20000000300BXEE 4029636259541 011681390277                      21     617 Hosenanzug                                                                            000000000000000033000000000000PCE00000988350000098835000029950000002995000001PCE                                                                                                                        0000000000   0000000000                                            1600000000000                                                                                                                                                              

20000000400BXEE 4029636259558 011681390277                      22     617 Hosenanzug                                                                            000000000000000033000000000000PCE00000988350000098835000029950000002995000001PCE                                                                                                                        0000000000   0000000000                                            1600000000000                                                                                                                                                              

20000000500BXEE 4029636259565 011681390277                      23     617 Hosenanzug                                                                            000000000000000033000000000000PCE00000988350000098835000029950000002995000001PCE                                                                                                                        0000000000   0000000000                                            1600000000000                                                                                                                                                              

20000000600BXEE 4029636259572 011681390277                      24     617 Hosenanzug                                                                            000000000000000033000000000000PCE00000988350000098835000029950000002995000001PCE                                                                                                                        0000000000   0000000000                                            1600000000000                                                                                                                                                              

20000000700BXEE 4029636259527 011681390277                      19     617 Hosenanzug                                                                            000000000000000025000000000000PCE00000748750000074875000029950000002995000001PCE                                                                                                                        0000000000   0000000000                                            1600000000000                                                                                                                                                              

20000000800BXEE 4029636259534 011681390277                      20     617 Hosenanzug                                                                            000000000000000050000000000000PCE00001497500000149750000029950000002995000001PCE                                                                                                                        0000000000   0000000000                                            1600000000000                                                                                                                                                              

20000000900BXEE 4029636259541 011681390277                      21     617 Hosenanzug                                                                            000000000000000050000000000000PCE00001497500000149750000029950000002995000001PCE                                                                                                                        0000000000   0000000000                                            1600000000000                                                                                                                                                              

20000001000BXEE 4029636259558 011681390277                      22     617 Hosenanzug                                                                            000000000000000025000000000000PCE00000748750000074875000029950000002995000001PCE                                                                                                                        0000000000   0000000000                                            1600000000000                                                                                                                                                              

20000001100BXEE 4029636259565 011681390277                      23     617 Hosenanzug                                                                            000000000000000025000000000000PCE00000748750000074875000029950000002995000001PCE                                                                                                                        0000000000   0000000000                                            1600000000000                                                                                                                                                              

20000001200BXEE 4029636259572 011681390277                      24     617 Hosenanzug                                                                            000000000000000025000000000000PCE00000748750000074875000029950000002995000001PCE                                                                                                                        0000000000   0000000000                                            1600000000000                                                                                                                                                              

20000001300BXEE 4029636259527 011681390277                      19     617 Hosenanzug                                                                            000000000000000017000000000000PCE00000509150000050915000029950000002995000001PCE                                                                                                                        0000000000   0000000000                                            1600000000000                                                                                                                                                              

20000001400BXEE 4029636259534 011681390277                      20     617 Hosenanzug                                                                            000000000000000016000000000000PCE00000479200000047920000029950000002995000001PCE                                                                                                                        0000000000   0000000000                                            1600000000000                                                                                                                                                              

20000001500BXEE 4029636259541 011681390277                      21     617 Hosenanzug                                                                            000000000000000017000000000000PCE00000509150000050915000029950000002995000001PCE                                                                                                                        0000000000   0000000000                                            1600000000000                                                                                                                                                              

20000001600BXEE 4029636259558 011681390277                      22     617 Hosenanzug                                                                            000000000000000016000000000000PCE00000479200000047920000029950000002995000001PCE                                                                                                                        0000000000   0000000000                                            1600000000000                                                                                                                                                              

20000001700BXEE 4029636259565 011681390277                      23     617 Hosenanzug                                                                            000000000000000017000000000000PCE00000509150000050915000029950000002995000001PCE                                                                                                                        0000000000   0000000000                                            1600000000000                                                                                                                                                              

20000001800BXEE 4029636259572 011681390277                      24     617 Hosenanzug                                                                            000000000000000015000000000000PCE00000449250000044925000029950000002995000001PCE                                                                                                                        0000000000   0000000000                                            1600000000000                                                                                                                                                              

30000000160099999999EUR   00014855200000000000000000000000000000000000000000000148552000002376830001723203000000000000000000000000000000000000000000000000000000000000000148552000000000000000000000000000000000000000000001485520000023768300017232030000000000000000000000000000000000000000000000000000000000000000000000000000000000000000000000000000000000000000000000000000000000000000000000000000000000000000                                                                                                                                                                                                 

100                                                       380381967           200201094334402000303              402963501100343344660003014334466000301402963501100343344660003014334466000301                 20020109381967           20020109014506723027     20010605                         EUR00000001600        000        00000000                000                              9                         DE125022125                 150466                                                                                                                                                              

105           0                                  ABO200202075                1                                          20010330                                                                                                                                                                                                                                                                 130                                                                                                                                                                                                                   

20000000100BXEE 4029636259183 011680450242                      19     610 Kostm                                                                                000000000000000042000000000000PCE00001467900000146790000034950000003495000001PCE                                                                                                                        0000000000   0000000000                                            1600000000000                                                                                                                                                              

20000000200BXEE 4029636259190 011680450242                      20     610 Kostm                                                                                000000000000000042000000000000PCE00001467900000146790000034950000003495000001PCE                                                                                                                        0000000000   0000000000                                            1600000000000                                                                                                                                                              

20000000300BXEE 4029636259206 011680450242                      21     610 Kostm                                                                                000000000000000042000000000000PCE00001467900000146790000034950000003495000001PCE                                                                                                                        0000000000   0000000000                                            1600000000000                                                                                                                                                              

20000000400BXEE 4029636259213 011680450242                      22     610 Kostm                                                                                000000000000000042000000000000PCE00001467900000146790000034950000003495000001PCE                                                                                                                        0000000000   0000000000                                            1600000000000                                                                                                                                                              

20000000500BXEE 4029636259220 011680450242                      23     610 Kostm                                                                                000000000000000042000000000000PCE00001467900000146790000034950000003495000001PCE                                                                                                                        0000000000   0000000000                                            1600000000000                                                                                                                                                              

20000000600BXEE 4029636259237 011680450242                      24     610 Kostm                                                                                000000000000000042000000000000PCE00001467900000146790000034950000003495000001PCE                                                                                                                        0000000000   0000000000                                            1600000000000                                                                                                                                                              

20000000700BXEE 4029636259183 011680450242                      19     610 Kostm                                                                                000000000000000016000000000000PCE00000559200000055920000034950000003495000001PCE                                                                                                                        0000000000   0000000000                                            1600000000000                                                                                                                                                              

20000000800BXEE 4029636259190 011680450242                      20     610 Kostm                                                                                000000000000000032000000000000PCE00001118400000111840000034950000003495000001PCE                                                                                                                        0000000000   0000000000                                            1600000000000                                                                                                                                                              

20000000900BXEE 4029636259206 011680450242                      21     610 Kostm                                                                                000000000000000032000000000000PCE00001118400000111840000034950000003495000001PCE                                                                                                                        0000000000   0000000000                                            1600000000000                                                                                                                                                              

20000001000BXEE 4029636259213 011680450242                      22     610 Kostm                                                                                000000000000000016000000000000PCE00000559200000055920000034950000003495000001PCE                                                                                                                        0000000000   0000000000                                            1600000000000                                                                                                                                                              

20000001100BXEE 4029636259220 011680450242                      23     610 Kostm                                                                                000000000000000016000000000000PCE00000559200000055920000034950000003495000001PCE                                                                                                                        0000000000   0000000000                                            1600000000000                                                                                                                                                              

20000001200BXEE 4029636259237 011680450242                      24     610 Kostm                                                                                000000000000000016000000000000PCE00000559200000055920000034950000003495000001PCE                                                                                                                        0000000000   0000000000                                            1600000000000                                                                                                                                                              

20000001300BXEE 4029636259183 011680450242                      19     610 Kostm                                                                                000000000000000009000000000000PCE00000314550000031455000034950000003495000001PCE                                                                                                                        0000000000   0000000000                                            1600000000000                                                                                                                                                              

20000001400BXEE 4029636259190 011680450242                      20     610 Kostm                                                                                000000000000000009000000000000PCE00000314550000031455000034950000003495000001PCE                                                                                                                        0000000000   0000000000                                            1600000000000                                                                                                                                                              

20000001500BXEE 4029636259206 011680450242                      21     610 Kostm                                                                                000000000000000010000000000000PCE00000349500000034950000034950000003495000001PCE                                                                                                                        0000000000   0000000000                                            1600000000000                                                                                                                                                              

20000001600BXEE 4029636259213 011680450242                      22     610 Kostm                                                                                000000000000000007000000000000PCE00000244650000024465000034950000003495000001PCE                                                                                                                        0000000000   0000000000                                            1600000000000                                                                                                                                                              

20000001700BXEE 4029636259220 011680450242                      23     610 Kostm                                                                                000000000000000010000000000000PCE00000349500000034950000034950000003495000001PCE                                                                                                                        0000000000   0000000000                                            1600000000000                                                                                                                                                              

20000001800BXEE 4029636259237 011680450242                      24     610 Kostm                                                                                000000000000000009000000000000PCE00000314550000031455000034950000003495000001PCE                                                                                                                        0000000000   0000000000                                            1600000000000                                                                                                                                                              

30000000160099999999EUR   00015168300000000000000000000000000000000000000000000151683000002426930001759523000000000000000000000000000000000000000000000000000000000000000151683000000000000000000000000000000000000000000001516830000024269300017595230000000000000000000000000000000000000000000000000000000000000000000000000000000000000000000000000000000000000000000000000000000000000000000000000000000000000000                                                                                                                                                                                                 

5003935                2002020714029635011003433440200030340296350110034334402000303EUR   0000000                                                                  160099999999001016100000016257600011786760001016100000016257600011786760000000000000000000000000000000000000000000000000000000000000                                                                                                                                                                                                                                                                                                                

